{
  "_format": "hh-sol-artifact-1",
  "contractName": "Todo",
  "sourceName": "contracts/Todo.sol",
  "abi": [
    {
      "inputs": [],
      "stateMutability": "nonpayable",
      "type": "constructor"
    },
    {
      "anonymous": false,
      "inputs": [
        {
          "indexed": true,
          "internalType": "uint256",
          "name": "taskId",
          "type": "uint256"
        },
        {
          "indexed": true,
          "internalType": "address",
          "name": "creator",
          "type": "address"
        },
        {
          "indexed": true,
          "internalType": "string",
          "name": "message",
          "type": "string"
        }
      ],
      "name": "TaskAdded",
      "type": "event"
    },
    {
      "anonymous": false,
      "inputs": [
        {
          "indexed": true,
          "internalType": "uint256",
          "name": "taskId",
          "type": "uint256"
        },
        {
          "indexed": true,
          "internalType": "address",
          "name": "creator",
          "type": "address"
        },
        {
          "indexed": true,
          "internalType": "bool",
          "name": "status",
          "type": "bool"
        }
      ],
      "name": "TaskToggled",
      "type": "event"
    },
    {
      "inputs": [
        {
          "internalType": "uint256",
          "name": "_taskId",
          "type": "uint256"
        }
      ],
      "name": "completeTask",
      "outputs": [],
      "stateMutability": "nonpayable",
      "type": "function"
    },
    {
      "inputs": [
        {
          "internalType": "address",
          "name": "user",
          "type": "address"
        },
        {
          "internalType": "string",
          "name": "_content",
          "type": "string"
        }
      ],
      "name": "createTask",
      "outputs": [],
      "stateMutability": "nonpayable",
      "type": "function"
    },
    {
      "inputs": [],
      "name": "getAllTasks",
      "outputs": [
        {
          "components": [
            {
              "internalType": "uint256",
              "name": "id",
              "type": "uint256"
            },
            {
              "internalType": "address",
              "name": "creator",
              "type": "address"
            },
            {
              "internalType": "string",
              "name": "message",
              "type": "string"
            },
            {
              "internalType": "bool",
              "name": "completed",
              "type": "bool"
            },
            {
              "internalType": "uint256",
              "name": "createdAt",
              "type": "uint256"
            },
            {
              "internalType": "uint256",
              "name": "completedAt",
              "type": "uint256"
            }
          ],
          "internalType": "struct Todo.Task[]",
          "name": "",
          "type": "tuple[]"
        }
      ],
      "stateMutability": "view",
      "type": "function"
    },
    {
      "inputs": [
        {
          "internalType": "uint256",
          "name": "_taskId",
          "type": "uint256"
        }
      ],
      "name": "getTask",
      "outputs": [
        {
          "components": [
            {
              "internalType": "uint256",
              "name": "id",
              "type": "uint256"
            },
            {
              "internalType": "address",
              "name": "creator",
              "type": "address"
            },
            {
              "internalType": "string",
              "name": "message",
              "type": "string"
            },
            {
              "internalType": "bool",
              "name": "completed",
              "type": "bool"
            },
            {
              "internalType": "uint256",
              "name": "createdAt",
              "type": "uint256"
            },
            {
              "internalType": "uint256",
              "name": "completedAt",
              "type": "uint256"
            }
          ],
          "internalType": "struct Todo.Task",
          "name": "",
          "type": "tuple"
        }
      ],
      "stateMutability": "view",
      "type": "function"
    },
    {
      "inputs": [
        {
          "internalType": "uint256",
          "name": "_taskId",
          "type": "uint256"
        }
      ],
      "name": "getTaskName",
      "outputs": [
        {
          "internalType": "string",
          "name": "",
          "type": "string"
        }
      ],
      "stateMutability": "view",
      "type": "function"
    },
    {
      "inputs": [
        {
          "internalType": "uint256",
          "name": "_taskId",
          "type": "uint256"
        }
      ],
      "name": "getTaskOwner",
      "outputs": [
        {
          "internalType": "address",
          "name": "",
          "type": "address"
        }
      ],
      "stateMutability": "view",
      "type": "function"
    },
    {
      "inputs": [
        {
          "internalType": "uint256",
          "name": "_taskId",
          "type": "uint256"
        }
      ],
      "name": "getTaskStatus",
      "outputs": [
        {
          "internalType": "bool",
          "name": "",
          "type": "bool"
        }
      ],
      "stateMutability": "view",
      "type": "function"
    },
    {
      "inputs": [
        {
          "internalType": "address",
          "name": "_user",
          "type": "address"
        }
      ],
      "name": "getUserTasks",
      "outputs": [
        {
          "components": [
            {
              "internalType": "uint256",
              "name": "id",
              "type": "uint256"
            },
            {
              "internalType": "address",
              "name": "creator",
              "type": "address"
            },
            {
              "internalType": "string",
              "name": "message",
              "type": "string"
            },
            {
              "internalType": "bool",
              "name": "completed",
              "type": "bool"
            },
            {
              "internalType": "uint256",
              "name": "createdAt",
              "type": "uint256"
            },
            {
              "internalType": "uint256",
              "name": "completedAt",
              "type": "uint256"
            }
          ],
          "internalType": "struct Todo.Task[]",
          "name": "",
          "type": "tuple[]"
        }
      ],
      "stateMutability": "view",
      "type": "function"
    },
    {
      "inputs": [
        {
          "internalType": "uint256",
          "name": "_taskId",
          "type": "uint256"
        },
        {
          "internalType": "bool",
          "name": "_status",
          "type": "bool"
        }
      ],
      "name": "setTaskStatus",
      "outputs": [],
      "stateMutability": "nonpayable",
      "type": "function"
    },
    {
      "inputs": [
        {
          "internalType": "uint256",
          "name": "_taskId",
          "type": "uint256"
        }
      ],
      "name": "toggleTask",
      "outputs": [],
      "stateMutability": "nonpayable",
      "type": "function"
    }
  ],
  "bytecode": "0x608060405234801561001057600080fd5b5060008055610f97806100246000396000f3fe608060405234801561001057600080fd5b506004361061009e5760003560e01c8063613137a411610066578063613137a41461014f578063779900b4146101625780638ebe2e701461017757806395d576601461018a578063e1e295581461019d57600080fd5b80631d65e77e146100a357806323d16818146100cc5780635290900b146100f757806353cd7b8e1461011a57806356755b131461012f575b600080fd5b6100b66100b1366004610b7b565b6101b0565b6040516100c39190610c37565b60405180910390f35b6100df6100da366004610b7b565b6102d9565b6040516001600160a01b0390911681526020016100c3565b61010a610105366004610b7b565b610311565b60405190151581526020016100c3565b61012d610128366004610c51565b610343565b005b61014261013d366004610b7b565b61040a565b6040516100c39190610c86565b61012d61015d366004610b7b565b6104c0565b61016a6105c0565b6040516100c39190610c99565b61012d610185366004610d17565b6106fa565b61016a610198366004610d9a565b6108a4565b61012d6101ab366004610b7b565b610abe565b6101b8610b3a565b600182815481106101cb576101cb610db5565b90600052602060002090600602016040518060c0016040529081600082015481526020016001820160009054906101000a90046001600160a01b03166001600160a01b03166001600160a01b0316815260200160028201805461022d90610dcb565b80601f016020809104026020016040519081016040528092919081815260200182805461025990610dcb565b80156102a65780601f1061027b576101008083540402835291602001916102a6565b820191906000526020600020905b81548152906001019060200180831161028957829003601f168201915b5050509183525050600382015460ff16151560208201526004820154604082015260059091015460609091015292915050565b6000600182815481106102ee576102ee610db5565b60009182526020909120600160069092020101546001600160a01b031692915050565b60006001828154811061032657610326610db5565b600091825260209091206003600690920201015460ff1692915050565b806001838154811061035757610357610db5565b906000526020600020906006020160030160006101000a81548160ff021916908315150217905550426001838154811061039357610393610db5565b906000526020600020906006020160050181905550801515600183815481106103be576103be610db5565b600091825260208220600160069092020101546040516001600160a01b039091169185917fbc7e5fe208a142dfe2e39f95207205fae6ebe448457cc71f35e83a746ddf586b9190a45050565b60606001828154811061041f5761041f610db5565b9060005260206000209060060201600201805461043b90610dcb565b80601f016020809104026020016040519081016040528092919081815260200182805461046790610dcb565b80156104b45780601f10610489576101008083540402835291602001916104b4565b820191906000526020600020905b81548152906001019060200180831161049757829003601f168201915b50505050509050919050565b600181815481106104d3576104d3610db5565b906000526020600020906006020160030160009054906101000a900460ff16156001828154811061050657610506610db5565b906000526020600020906006020160030160006101000a81548160ff0219169083151502179055506001818154811061054157610541610db5565b906000526020600020906006020160030160009054906101000a900460ff1615156001828154811061057557610575610db5565b600091825260208220600160069092020101546040516001600160a01b039091169184917fbc7e5fe208a142dfe2e39f95207205fae6ebe448457cc71f35e83a746ddf586b9190a450565b60606001805480602002602001604051908101604052809291908181526020016000905b828210156106f15760008481526020908190206040805160c081018252600686029092018054835260018101546001600160a01b0316938301939093526002830180549293929184019161063790610dcb565b80601f016020809104026020016040519081016040528092919081815260200182805461066390610dcb565b80156106b05780601f10610685576101008083540402835291602001916106b0565b820191906000526020600020905b81548152906001019060200180831161069357829003601f168201915b5050509183525050600382015460ff1615156020808301919091526004830154604083015260059092015460609091015290825260019290920191016105e4565b50505050905090565b60016040518060c001604052806000548152602001856001600160a01b0316815260200184848080601f0160208091040260200160405190810160405280939291908181526020018383808284376000920182905250938552505050602080830182905242604080850191909152606090930182905284546001808201875595835291819020845160069093020191825583015193810180546001600160a01b0319166001600160a01b039095169490941790935581015190919060028201906107c49082610e6a565b5060608201516003828101805460ff1916921515929092179091556080830151600483015560a0909201516005909101556001600160a01b038416600081815260026020908152604080832083548154600181018355918552838520909101558254835293905291822080546001600160a01b03191690911790558054908061084c83610f2a565b91905055508181604051610861929190610f51565b6040519081900381206000805491926001600160a01b03871692917f93a8e75471bd311ce5f95db404c257e8b775ab9f5436c5b6997e81651d56a01491a4505050565b6001600160a01b0381166000908152600260205260408120546060918167ffffffffffffffff8111156108d9576108d9610e05565b60405190808252806020026020018201604052801561091257816020015b6108ff610b3a565b8152602001906001900390816108f75790505b5090506000805b83811015610ab4576001600160a01b038616600090815260026020526040812080548390811061094b5761094b610db5565b906000526020600020015490506001818154811061096b5761096b610db5565b90600052602060002090600602016040518060c0016040529081600082015481526020016001820160009054906101000a90046001600160a01b03166001600160a01b03166001600160a01b031681526020016002820180546109cd90610dcb565b80601f01602080910402602001604051908101604052809291908181526020018280546109f990610dcb565b8015610a465780601f10610a1b57610100808354040283529160200191610a46565b820191906000526020600020905b815481529060010190602001808311610a2957829003601f168201915b5050509183525050600382015460ff1615156020820152600482015460408201526005909101546060909101528451859085908110610a8757610a87610db5565b60200260200101819052508280610a9d90610f2a565b935050508080610aac90610f2a565b915050610919565b5090949350505050565b6001808281548110610ad257610ad2610db5565b906000526020600020906006020160030160006101000a81548160ff0219169083151502179055504260018281548110610b0e57610b0e610db5565b906000526020600020906006020160050181905550600115156001828154811061057557610575610db5565b6040518060c001604052806000815260200160006001600160a01b031681526020016060815260200160001515815260200160008152602001600081525090565b600060208284031215610b8d57600080fd5b5035919050565b6000815180845260005b81811015610bba57602081850181015186830182015201610b9e565b506000602082860101526020601f19601f83011685010191505092915050565b8051825260018060a01b0360208201511660208301526000604082015160c06040850152610c0b60c0850182610b94565b90506060830151151560608501526080830151608085015260a083015160a08501528091505092915050565b602081526000610c4a6020830184610bda565b9392505050565b60008060408385031215610c6457600080fd5b8235915060208301358015158114610c7b57600080fd5b809150509250929050565b602081526000610c4a6020830184610b94565b6000602080830181845280855180835260408601915060408160051b870101925083870160005b82811015610cee57603f19888603018452610cdc858351610bda565b94509285019290850190600101610cc0565b5092979650505050505050565b80356001600160a01b0381168114610d1257600080fd5b919050565b600080600060408486031215610d2c57600080fd5b610d3584610cfb565b9250602084013567ffffffffffffffff80821115610d5257600080fd5b818601915086601f830112610d6657600080fd5b813581811115610d7557600080fd5b876020828501011115610d8757600080fd5b6020830194508093505050509250925092565b600060208284031215610dac57600080fd5b610c4a82610cfb565b634e487b7160e01b600052603260045260246000fd5b600181811c90821680610ddf57607f821691505b602082108103610dff57634e487b7160e01b600052602260045260246000fd5b50919050565b634e487b7160e01b600052604160045260246000fd5b601f821115610e6557600081815260208120601f850160051c81016020861015610e425750805b601f850160051c820191505b81811015610e6157828155600101610e4e565b5050505b505050565b815167ffffffffffffffff811115610e8457610e84610e05565b610e9881610e928454610dcb565b84610e1b565b602080601f831160018114610ecd5760008415610eb55750858301515b600019600386901b1c1916600185901b178555610e61565b600085815260208120601f198616915b82811015610efc57888601518255948401946001909101908401610edd565b5085821015610f1a5787850151600019600388901b60f8161c191681555b5050505050600190811b01905550565b600060018201610f4a57634e487b7160e01b600052601160045260246000fd5b5060010190565b818382376000910190815291905056fea2646970667358221220abcd1bb9be19e83c9dac8c3a3ba3eeb9cf3cf1df90d96e7d22749c0d0f32e88a64736f6c63430008110033",
  "linkReferences": {},
  "deployedLinkReferences": {}
}