{
    "_format": "hh-sol-artifact-1",
    "contractName": "Coins",
    "sourceName": "contracts/Coins.sol",
    "address": "0xcb15573cb5E218F3dfc627C924542351550B3C06",
    "abi": [
        {
            "inputs": [],
            "stateMutability": "nonpayable",
            "type": "constructor"
        },
        {
            "inputs": [
                {
                    "internalType": "address",
                    "name": "account",
                    "type": "address"
                },
                {
                    "internalType": "uint256",
                    "name": "balance",
                    "type": "uint256"
                }
            ],
            "name": "Coins__InsufficientBalance",
            "type": "error"
        },
        {
            "anonymous": false,
            "inputs": [
                {
                    "indexed": true,
                    "internalType": "address",
                    "name": "from",
                    "type": "address"
                },
                {
                    "indexed": true,
                    "internalType": "uint256",
                    "name": "amount",
                    "type": "uint256"
                }
            ],
            "name": "SpentCoin",
            "type": "event"
        },
        {
            "anonymous": false,
            "inputs": [
                {
                    "indexed": true,
                    "internalType": "address",
                    "name": "to",
                    "type": "address"
                },
                {
                    "indexed": true,
                    "internalType": "uint256",
                    "name": "amount",
                    "type": "uint256"
                }
            ],
            "name": "TransferCoin",
            "type": "event"
        },
        {
            "inputs": [
                {
                    "internalType": "address",
                    "name": "_account",
                    "type": "address"
                }
            ],
            "name": "getBalance",
            "outputs": [
                {
                    "internalType": "uint256",
                    "name": "",
                    "type": "uint256"
                }
            ],
            "stateMutability": "view",
            "type": "function"
        },
        {
            "inputs": [
                {
                    "internalType": "address",
                    "name": "from",
                    "type": "address"
                },
                {
                    "internalType": "uint256",
                    "name": "amount",
                    "type": "uint256"
                }
            ],
            "name": "spendCoins",
            "outputs": [],
            "stateMutability": "nonpayable",
            "type": "function"
        },
        {
            "inputs": [],
            "name": "totalMinted",
            "outputs": [
                {
                    "internalType": "uint256",
                    "name": "",
                    "type": "uint256"
                }
            ],
            "stateMutability": "view",
            "type": "function"
        },
        {
            "inputs": [
                {
                    "internalType": "address",
                    "name": "to",
                    "type": "address"
                },
                {
                    "internalType": "uint256",
                    "name": "amount",
                    "type": "uint256"
                }
            ],
            "name": "transfer",
            "outputs": [],
            "stateMutability": "nonpayable",
            "type": "function"
        }
    ],
    "bytecode": "0x608060405234801561001057600080fd5b50600080556102de806100246000396000f3fe608060405234801561001057600080fd5b506004361061004c5760003560e01c8063978d4e7e14610051578063a2309ff814610066578063a9059cbb1461007c578063f8b2cb4f1461008f575b600080fd5b61006461005f36600461021a565b6100b8565b005b6000545b60405190815260200160405180910390f35b61006461008a36600461021a565b61017f565b61006a61009d366004610244565b6001600160a01b031660009081526001602052604090205490565b6001600160a01b038216600090815260016020526040902054811115610118576001600160a01b0382166000818152600160205260409081902054905163564812d960e11b81526004810192909252602482015260440160405180910390fd5b6001600160a01b0382166000908152600160205260408120805483929061014090849061027c565b909155505060405181906001600160a01b038416907fe0562a0e6ec528e92de3e6b430a904f884b20221acfde563c42a995fd012110e90600090a35050565b6001600160a01b038216600090815260016020526040812080548392906101a7908490610295565b92505081905550806000808282546101bf9190610295565b909155505060405181906001600160a01b038416907f0e23676c33a35c7dc1c198db8522900e9416306e51339a1400c500f528f2ac4c90600090a35050565b80356001600160a01b038116811461021557600080fd5b919050565b6000806040838503121561022d57600080fd5b610236836101fe565b946020939093013593505050565b60006020828403121561025657600080fd5b61025f826101fe565b9392505050565b634e487b7160e01b600052601160045260246000fd5b8181038181111561028f5761028f610266565b92915050565b8082018082111561028f5761028f61026656fea2646970667358221220e9c80022e5dfcc6f3ea2c61211c6d3bb4506336bb3688fb97d482ebd9ce1e23764736f6c63430008110033",
    "linkReferences": {},
    "deployedLinkReferences": {}
}